:020000001028C6
:10000800FE00030EDD000408DE000A08DF0083128C
:1000180003137F08E000322A1128403084005B3047
:100028004C225E22E6005F22E7006022E80083019E
:10003800B728831203130E082F3EDB000F0803189E
:10004800013EF83EDC005B088E005C088F00540817
:10005800031930280130D4020130DB005B08DA07CD
:100068005A08053A0319DA014308420403194228D9
:100078000130C2020030031CC303C30267086604D0
:1000880003194D280130E6020030031CE703E7029C
:100098006228E830E6000330E700530803195628C1
:1000A8000130D302521C6228490848040319622807
:1000B8000130C8020030031CC903C90241084004CA
:1000C8000319AB280130C0020030031CC103C10270
:1000D800AB28831203130508F0394C04850005107A
:1000E800432283120313851608008312031305089D
:1000F800F0394D04850085124322831203138515B8
:100108000800831203130508F0394E048500851191
:1001180043228312031305150800831203130508ED
:10012800F0394F0485000511432283120313851407
:100138000800831203130508F0395004850085125E
:1001480043228312031305140800DA0108005A0831
:100158008400053004020318A92802308A005930A7
:10016800040782000800F830831203138F002F3031
:100178008E001014831603130C140B178B170630FC
:100188009F0064002022D408031DC5280A30E4001B
:100198006408D40091214B081F3A0319C528410867
:1001A8004004031DDB28C830C0000030C1004B1ECE
:1001B800511AE428651CE2286322E32861224B16C1
:1001C800CB1CD118F6280130C4070318C50A003023
:1001D800C507D33044064504031DF428C401C501EE
:1001E800E521CB144B1C51180A294508440403196E
:1001F80004290130C4020030031CC503C5020829C4
:10020800D230C4000030C500E5214B14CB1DD119F4
:100218001F290130C8070318C90A0030C90702306E
:100228004906031D19291B304806031D1D29C8014D
:10023800C9013421CB154B1D5119C528490848045B
:1002480003192D290130C8020030031CC903C90253
:1002580031291B30C8000230C90034214B15C5288C
:100268004908E301E3074808E201E207831603139C
:100278000C10D001003049023C3003194802031821
:100288006129831203138613003063020A300319AD
:100298006202031C5C290130E1006108D007620892
:1002A800F63EE20063080318013EFF3EE3004829DA
:1002B8006208E1006108CF008D29831203138617B5
:1002C800003063023C3003196202031C78290130B4
:1002D800E1006108D0076208C43EE2006308031821
:1002E800013EFF3EE3006429CF01003063020A307B
:1002F80003196202031C8D290130E1006108CF0750
:100308006208F63EE20063080318013EFF3EE30080
:100318007929831603130C140800831603130508A0
:10032800E1006108E200831203130508E100610897
:10033800E3008316031305081F388500542283122F
:10034800031305081F396806031DAF296808E10073
:100358006108D100B82905081F39E1006108E800E3
:10036800F430C0000130C100511EBE29EF30E10059
:100378006108CB0541084004031DC429CB01DC29D1
:10038800D11DCA29F730E1006108CB05511DD029DC
:10039800FB30E1006108CB05D11CD629FD30E10016
:1003A8006108CB05511CDC29FE30E1006108CB0552
:1003B80062088316031385006308831203138500FC
:1003C8000800831603130C10CE014508E301E30768
:1003D8004408E201E2070030630264300319620254
:1003E800031C032A62089C3EE20063080318013ECE
:1003F800FF3EE3000130E1006108CE07EF29CD019F
:10040800003063020A3003196202031C182A6208CA
:10041800F63EE20063080318013EFF3EE3000130A8
:10042800E1006108CD07042A6208E1006108CC00F8
:10043800831603130C14080045084702031D262AD7
:100448004408460203182B2AD214521108000F3010
:10045800E1006108D3005215D21008000C1C382A9C
:100468001D20831203130C106008FF005F088A0028
:100478005E0884005D0E8300FE0E7E0E0900831266
:10048800031306100000000083120313061408006B
:1004980064008001840A04060319003404064D2A06
:1004A8002130CA00CA0B562A08006D2879288528E9
:1004B80091289D28E83403341F3452140800521040
:0204C80008002A
:00000001FF
